{
  "_format": "hh-sol-artifact-1",
  "contractName": "Counter",
  "sourceName": "contracts/ChainLinkKeeper.sol",
  "abi": [
    {
      "inputs": [
        {
          "internalType": "uint256",
          "name": "updateInterval",
          "type": "uint256"
        }
      ],
      "stateMutability": "nonpayable",
      "type": "constructor"
    },
    {
      "inputs": [
        {
          "internalType": "bytes",
          "name": "",
          "type": "bytes"
        }
      ],
      "name": "checkUpkeep",
      "outputs": [
        {
          "internalType": "bool",
          "name": "upkeepNeeded",
          "type": "bool"
        },
        {
          "internalType": "bytes",
          "name": "",
          "type": "bytes"
        }
      ],
      "stateMutability": "view",
      "type": "function"
    },
    {
      "inputs": [],
      "name": "counter",
      "outputs": [
        {
          "internalType": "uint256",
          "name": "",
          "type": "uint256"
        }
      ],
      "stateMutability": "view",
      "type": "function"
    },
    {
      "inputs": [],
      "name": "interval",
      "outputs": [
        {
          "internalType": "uint256",
          "name": "",
          "type": "uint256"
        }
      ],
      "stateMutability": "view",
      "type": "function"
    },
    {
      "inputs": [],
      "name": "lastTimeStamp",
      "outputs": [
        {
          "internalType": "uint256",
          "name": "",
          "type": "uint256"
        }
      ],
      "stateMutability": "view",
      "type": "function"
    },
    {
      "inputs": [
        {
          "internalType": "bytes",
          "name": "",
          "type": "bytes"
        }
      ],
      "name": "performUpkeep",
      "outputs": [],
      "stateMutability": "nonpayable",
      "type": "function"
    }
  ],
  "bytecode": "0x60a060405234801561001057600080fd5b5060405161056838038061056883398181016040528101906100329190610089565b80608081815250504260018190555060008081905550506100b6565b600080fd5b6000819050919050565b61006681610053565b811461007157600080fd5b50565b6000815190506100838161005d565b92915050565b60006020828403121561009f5761009e61004e565b5b60006100ad84828501610074565b91505092915050565b6080516104896100df6000396000818161010b0152818161016b01526101a401526104896000f3fe608060405234801561001057600080fd5b50600436106100575760003560e01c80633f3b3b271461005c5780634585e33b1461007a57806361bc221a146100965780636e04ff0d146100b4578063947a36fb146100e5575b600080fd5b610064610103565b60405161007191906101df565b60405180910390f35b610094600480360381019061008f9190610269565b610109565b005b61009e61015f565b6040516100ab91906101df565b60405180910390f35b6100ce60048036038101906100c99190610269565b610165565b6040516100dc92919061036a565b60405180910390f35b6100ed6101a2565b6040516100fa91906101df565b60405180910390f35b60015481565b7f00000000000000000000000000000000000000000000000000000000000000006001544261013891906103c9565b111561015b5742600181905550600160005461015491906103fd565b6000819055505b5050565b60005481565b600060607f00000000000000000000000000000000000000000000000000000000000000006001544261019891906103c9565b1191509250929050565b7f000000000000000000000000000000000000000000000000000000000000000081565b6000819050919050565b6101d9816101c6565b82525050565b60006020820190506101f460008301846101d0565b92915050565b600080fd5b600080fd5b600080fd5b600080fd5b600080fd5b60008083601f84011261022957610228610204565b5b8235905067ffffffffffffffff81111561024657610245610209565b5b6020830191508360018202830111156102625761026161020e565b5b9250929050565b600080602083850312156102805761027f6101fa565b5b600083013567ffffffffffffffff81111561029e5761029d6101ff565b5b6102aa85828601610213565b92509250509250929050565b60008115159050919050565b6102cb816102b6565b82525050565b600081519050919050565b600082825260208201905092915050565b60005b8381101561030b5780820151818401526020810190506102f0565b8381111561031a576000848401525b50505050565b6000601f19601f8301169050919050565b600061033c826102d1565b61034681856102dc565b93506103568185602086016102ed565b61035f81610320565b840191505092915050565b600060408201905061037f60008301856102c2565b81810360208301526103918184610331565b90509392505050565b7f4e487b7100000000000000000000000000000000000000000000000000000000600052601160045260246000fd5b60006103d4826101c6565b91506103df836101c6565b9250828210156103f2576103f161039a565b5b828203905092915050565b6000610408826101c6565b9150610413836101c6565b9250827fffffffffffffffffffffffffffffffffffffffffffffffffffffffffffffffff038211156104485761044761039a565b5b82820190509291505056fea264697066735822122078243cbe1b164a935b052a3c0c621229d392faeb3c9ecc3eadcd79ccebd53c7b64736f6c634300080d0033",
  "linkReferences": {},
  "deployedLinkReferences": {}
}