{
  "_format": "hh-sol-artifact-1",
  "contractName": "AccuweatherConsumer",
  "sourceName": "contracts/AccuweatherConsumerContract.sol",
  "abi": [
    {
      "inputs": [
        {
          "internalType": "address",
          "name": "_link",
          "type": "address"
        },
        {
          "internalType": "address",
          "name": "_oracle",
          "type": "address"
        }
      ],
      "stateMutability": "nonpayable",
      "type": "constructor"
    },
    {
      "anonymous": false,
      "inputs": [
        {
          "indexed": true,
          "internalType": "bytes32",
          "name": "id",
          "type": "bytes32"
        }
      ],
      "name": "ChainlinkCancelled",
      "type": "event"
    },
    {
      "anonymous": false,
      "inputs": [
        {
          "indexed": true,
          "internalType": "bytes32",
          "name": "id",
          "type": "bytes32"
        }
      ],
      "name": "ChainlinkFulfilled",
      "type": "event"
    },
    {
      "anonymous": false,
      "inputs": [
        {
          "indexed": true,
          "internalType": "bytes32",
          "name": "id",
          "type": "bytes32"
        }
      ],
      "name": "ChainlinkRequested",
      "type": "event"
    },
    {
      "inputs": [
        {
          "internalType": "bytes32",
          "name": "_requestId",
          "type": "bytes32"
        },
        {
          "internalType": "bytes",
          "name": "_currentConditionsResult",
          "type": "bytes"
        }
      ],
      "name": "fulfillCurrentConditions",
      "outputs": [],
      "stateMutability": "nonpayable",
      "type": "function"
    },
    {
      "inputs": [
        {
          "internalType": "bytes32",
          "name": "_requestId",
          "type": "bytes32"
        },
        {
          "internalType": "bool",
          "name": "_locationFound",
          "type": "bool"
        },
        {
          "internalType": "bytes",
          "name": "_locationResult",
          "type": "bytes"
        }
      ],
      "name": "fulfillLocation",
      "outputs": [],
      "stateMutability": "nonpayable",
      "type": "function"
    },
    {
      "inputs": [
        {
          "internalType": "bytes32",
          "name": "_requestId",
          "type": "bytes32"
        },
        {
          "internalType": "bool",
          "name": "_locationFound",
          "type": "bool"
        },
        {
          "internalType": "bytes",
          "name": "_locationResult",
          "type": "bytes"
        },
        {
          "internalType": "bytes",
          "name": "_currentConditionsResult",
          "type": "bytes"
        }
      ],
      "name": "fulfillLocationCurrentConditions",
      "outputs": [],
      "stateMutability": "nonpayable",
      "type": "function"
    },
    {
      "inputs": [],
      "name": "getOracleAddress",
      "outputs": [
        {
          "internalType": "address",
          "name": "",
          "type": "address"
        }
      ],
      "stateMutability": "view",
      "type": "function"
    },
    {
      "inputs": [
        {
          "internalType": "bytes32",
          "name": "_specId",
          "type": "bytes32"
        },
        {
          "internalType": "uint256",
          "name": "_payment",
          "type": "uint256"
        },
        {
          "internalType": "uint256",
          "name": "_locationKey",
          "type": "uint256"
        },
        {
          "internalType": "string",
          "name": "_units",
          "type": "string"
        }
      ],
      "name": "requestCurrentConditions",
      "outputs": [],
      "stateMutability": "nonpayable",
      "type": "function"
    },
    {
      "inputs": [
        {
          "internalType": "bytes32",
          "name": "",
          "type": "bytes32"
        }
      ],
      "name": "requestIdCurrentConditionsResult",
      "outputs": [
        {
          "internalType": "uint256",
          "name": "timestamp",
          "type": "uint256"
        },
        {
          "internalType": "uint24",
          "name": "precipitationPast12Hours",
          "type": "uint24"
        },
        {
          "internalType": "uint24",
          "name": "precipitationPast24Hours",
          "type": "uint24"
        },
        {
          "internalType": "uint24",
          "name": "precipitationPastHour",
          "type": "uint24"
        },
        {
          "internalType": "uint24",
          "name": "pressure",
          "type": "uint24"
        },
        {
          "internalType": "int16",
          "name": "temperature",
          "type": "int16"
        },
        {
          "internalType": "uint16",
          "name": "windDirectionDegrees",
          "type": "uint16"
        },
        {
          "internalType": "uint16",
          "name": "windSpeed",
          "type": "uint16"
        },
        {
          "internalType": "uint8",
          "name": "precipitationType",
          "type": "uint8"
        },
        {
          "internalType": "uint8",
          "name": "relativeHumidity",
          "type": "uint8"
        },
        {
          "internalType": "uint8",
          "name": "uvIndex",
          "type": "uint8"
        },
        {
          "internalType": "uint8",
          "name": "weatherIcon",
          "type": "uint8"
        }
      ],
      "stateMutability": "view",
      "type": "function"
    },
    {
      "inputs": [
        {
          "internalType": "bytes32",
          "name": "",
          "type": "bytes32"
        }
      ],
      "name": "requestIdLocationResult",
      "outputs": [
        {
          "internalType": "uint256",
          "name": "locationKey",
          "type": "uint256"
        },
        {
          "internalType": "string",
          "name": "name",
          "type": "string"
        },
        {
          "internalType": "bytes2",
          "name": "countryCode",
          "type": "bytes2"
        }
      ],
      "stateMutability": "view",
      "type": "function"
    },
    {
      "inputs": [
        {
          "internalType": "bytes32",
          "name": "",
          "type": "bytes32"
        }
      ],
      "name": "requestIdRequestParams",
      "outputs": [
        {
          "internalType": "uint256",
          "name": "locationKey",
          "type": "uint256"
        },
        {
          "internalType": "string",
          "name": "endpoint",
          "type": "string"
        },
        {
          "internalType": "string",
          "name": "lat",
          "type": "string"
        },
        {
          "internalType": "string",
          "name": "lon",
          "type": "string"
        },
        {
          "internalType": "string",
          "name": "units",
          "type": "string"
        }
      ],
      "stateMutability": "view",
      "type": "function"
    },
    {
      "inputs": [
        {
          "internalType": "bytes32",
          "name": "_specId",
          "type": "bytes32"
        },
        {
          "internalType": "uint256",
          "name": "_payment",
          "type": "uint256"
        },
        {
          "internalType": "string",
          "name": "_lat",
          "type": "string"
        },
        {
          "internalType": "string",
          "name": "_lon",
          "type": "string"
        }
      ],
      "name": "requestLocation",
      "outputs": [],
      "stateMutability": "nonpayable",
      "type": "function"
    },
    {
      "inputs": [
        {
          "internalType": "bytes32",
          "name": "_specId",
          "type": "bytes32"
        },
        {
          "internalType": "uint256",
          "name": "_payment",
          "type": "uint256"
        },
        {
          "internalType": "string",
          "name": "_lat",
          "type": "string"
        },
        {
          "internalType": "string",
          "name": "_lon",
          "type": "string"
        },
        {
          "internalType": "string",
          "name": "_units",
          "type": "string"
        }
      ],
      "name": "requestLocationCurrentConditions",
      "outputs": [],
      "stateMutability": "nonpayable",
      "type": "function"
    },
    {
      "inputs": [
        {
          "internalType": "address",
          "name": "_oracle",
          "type": "address"
        }
      ],
      "name": "setOracle",
      "outputs": [],
      "stateMutability": "nonpayable",
      "type": "function"
    },
    {
      "inputs": [],
      "name": "withdrawLink",
      "outputs": [],
      "stateMutability": "nonpayable",
      "type": "function"
    }
  ],
  "bytecode": "0x608060405260016004553480156200001657600080fd5b50604051620038763803806200387683398181016040528101906200003c919062000158565b6200004d826200006660201b60201c565b6200005e81620000aa60201b60201c565b50506200019f565b80600260006101000a81548173ffffffffffffffffffffffffffffffffffffffff021916908373ffffffffffffffffffffffffffffffffffffffff16021790555050565b80600360006101000a81548173ffffffffffffffffffffffffffffffffffffffff021916908373ffffffffffffffffffffffffffffffffffffffff16021790555050565b600080fd5b600073ffffffffffffffffffffffffffffffffffffffff82169050919050565b60006200012082620000f3565b9050919050565b620001328162000113565b81146200013e57600080fd5b50565b600081519050620001528162000127565b92915050565b60008060408385031215620001725762000171620000ee565b5b6000620001828582860162000141565b9250506020620001958582860162000141565b9150509250929050565b6136c780620001af6000396000f3fe608060405234801561001057600080fd5b50600436106100b45760003560e01c80638dc654a2116100715780638dc654a2146101805780639c2b98fb1461018a578063b18b78dd146101bc578063dffe2894146101da578063e13caa63146101f6578063ed6a717514610212576100b4565b80630d6011b3146100b957806324a1065d146100d5578063371eaced146100f157806337b95e861461010d5780634d425a84146101485780637adbf97314610164575b600080fd5b6100d360048036038101906100ce9190612285565b610246565b005b6100ef60048036038101906100ea919061232c565b6104ea565b005b61010b6004803603810190610106919061252d565b61075f565b005b610127600480360381019061012291906125cc565b610886565b60405161013f9c9b9a9998979695949392919061267b565b60405180910390f35b610162600480360381019061015d9190612735565b61097f565b005b61017e6004803603810190610179919061286f565b610ce8565b005b610188610cf4565b005b6101a4600480360381019061019f91906125cc565b610e39565b6040516101b39392919061295f565b60405180910390f35b6101c4610ef8565b6040516101d191906129ac565b60405180910390f35b6101f460048036038101906101ef91906129c7565b610f07565b005b610210600480360381019061020b9190612a36565b611023565b005b61022c600480360381019061022791906125cc565b611137565b60405161023d959493929190612a92565b60405180910390f35b600061025a873063dffe289460e01b61138d565b90506102db6040518060400160405280600881526020017f656e64706f696e740000000000000000000000000000000000000000000000008152506040518060400160405280600881526020017f6c6f636174696f6e000000000000000000000000000000000000000000000000815250836113be9092919063ffffffff16565b6103696040518060400160405280600381526020017f6c6174000000000000000000000000000000000000000000000000000000000081525086868080601f016020809104026020016040519081016040528093929190818152602001838380828437600081840152601f19601f82011690508083019250505050505050836113be9092919063ffffffff16565b6103f76040518060400160405280600381526020017f6c6f6e000000000000000000000000000000000000000000000000000000000081525084848080601f016020809104026020016040519081016040528093929190818152602001838380828437600081840152601f19601f82011690508083019250505050505050836113be9092919063ffffffff16565b600061040382886113f1565b90506104e08160006040518060400160405280600881526020017f6c6f636174696f6e00000000000000000000000000000000000000000000000081525089898080601f016020809104026020016040519081016040528093929190818152602001838380828437600081840152601f19601f8201169050808301925050505050505088888080601f016020809104026020016040519081016040528093929190818152602001838380828437600081840152601f19601f8201169050808301925050505050505060405180602001604052806000815250611428565b5050505050505050565b60006104fe863063e13caa6360e01b61138d565b905061057f6040518060400160405280600881526020017f656e64706f696e740000000000000000000000000000000000000000000000008152506040518060400160405280601281526020017f63757272656e742d636f6e646974696f6e730000000000000000000000000000815250836113be9092919063ffffffff16565b6105c96040518060400160405280600b81526020017f6c6f636174696f6e4b657900000000000000000000000000000000000000000081525085836114fc9092919063ffffffff16565b6106576040518060400160405280600581526020017f756e69747300000000000000000000000000000000000000000000000000000081525084848080601f016020809104026020016040519081016040528093929190818152602001838380828437600081840152601f19601f82011690508083019250505050505050836113be9092919063ffffffff16565b600061066382876113f1565b905061075681866040518060400160405280601281526020017f63757272656e742d636f6e646974696f6e7300000000000000000000000000008152506040518060400160405280600181526020017f30000000000000000000000000000000000000000000000000000000000000008152506040518060400160405280600181526020017f300000000000000000000000000000000000000000000000000000000000000081525089898080601f016020809104026020016040519081016040528093929190818152602001838380828437600081840152601f19601f82011690508083019250505050505050611428565b50505050505050565b836005600082815260200190815260200160002060009054906101000a900473ffffffffffffffffffffffffffffffffffffffff1673ffffffffffffffffffffffffffffffffffffffff163373ffffffffffffffffffffffffffffffffffffffff1614610801576040517f08c379a00000000000000000000000000000000000000000000000000000000081526004016107f890612b73565b60405180910390fd5b6005600082815260200190815260200160002060006101000a81549073ffffffffffffffffffffffffffffffffffffffff0219169055807f7cc135e0cebb02c3480ae5d74d377283180a2601f8f644edf7987b009316c63a60405160405180910390a2831561087f57610874858461152f565b61087e85836115ac565b5b5050505050565b60066020528060005260406000206000915090508060000154908060010160009054906101000a900462ffffff16908060010160039054906101000a900462ffffff16908060010160069054906101000a900462ffffff16908060010160099054906101000a900462ffffff169080600101600c9054906101000a900460010b9080600101600e9054906101000a900461ffff16908060010160109054906101000a900461ffff16908060010160129054906101000a900460ff16908060010160139054906101000a900460ff16908060010160149054906101000a900460ff16908060010160159054906101000a900460ff1690508c565b6000610993893063371eaced60e01b61138d565b9050610a146040518060400160405280600881526020017f656e64706f696e740000000000000000000000000000000000000000000000008152506040518060400160405280601b81526020017f6c6f636174696f6e2d63757272656e742d636f6e646974696f6e730000000000815250836113be9092919063ffffffff16565b610aa26040518060400160405280600381526020017f6c6174000000000000000000000000000000000000000000000000000000000081525088888080601f016020809104026020016040519081016040528093929190818152602001838380828437600081840152601f19601f82011690508083019250505050505050836113be9092919063ffffffff16565b610b306040518060400160405280600381526020017f6c6f6e000000000000000000000000000000000000000000000000000000000081525086868080601f016020809104026020016040519081016040528093929190818152602001838380828437600081840152601f19601f82011690508083019250505050505050836113be9092919063ffffffff16565b610bbe6040518060400160405280600581526020017f756e69747300000000000000000000000000000000000000000000000000000081525084848080601f016020809104026020016040519081016040528093929190818152602001838380828437600081840152601f19601f82011690508083019250505050505050836113be9092919063ffffffff16565b6000610bca828a6113f1565b9050610cdc8160006040518060400160405280601b81526020017f6c6f636174696f6e2d63757272656e742d636f6e646974696f6e7300000000008152508b8b8080601f016020809104026020016040519081016040528093929190818152602001838380828437600081840152601f19601f820116905080830192505050505050508a8a8080601f016020809104026020016040519081016040528093929190818152602001838380828437600081840152601f19601f8201169050808301925050505050505089898080601f016020809104026020016040519081016040528093929190818152602001838380828437600081840152601f19601f82011690508083019250505050505050611428565b50505050505050505050565b610cf181611772565b50565b6000610cfe6117b6565b90508073ffffffffffffffffffffffffffffffffffffffff1663a9059cbb338373ffffffffffffffffffffffffffffffffffffffff166370a08231306040518263ffffffff1660e01b8152600401610d5691906129ac565b602060405180830381865afa158015610d73573d6000803e3d6000fd5b505050506040513d601f19601f82011682018060405250810190610d979190612ba8565b6040518363ffffffff1660e01b8152600401610db4929190612bd5565b6020604051808303816000875af1158015610dd3573d6000803e3d6000fd5b505050506040513d601f19601f82011682018060405250810190610df79190612c13565b610e36576040517f08c379a0000000000000000000000000000000000000000000000000000000008152600401610e2d90612c8c565b60405180910390fd5b50565b6007602052806000526040600020600091509050806000015490806001018054610e6290612cdb565b80601f0160208091040260200160405190810160405280929190818152602001828054610e8e90612cdb565b8015610edb5780601f10610eb057610100808354040283529160200191610edb565b820191906000526020600020905b815481529060010190602001808311610ebe57829003601f168201915b5050505050908060020160009054906101000a900460f01b905083565b6000610f026117e0565b905090565b826005600082815260200190815260200160002060009054906101000a900473ffffffffffffffffffffffffffffffffffffffff1673ffffffffffffffffffffffffffffffffffffffff163373ffffffffffffffffffffffffffffffffffffffff1614610fa9576040517f08c379a0000000000000000000000000000000000000000000000000000000008152600401610fa090612b73565b60405180910390fd5b6005600082815260200190815260200160002060006101000a81549073ffffffffffffffffffffffffffffffffffffffff0219169055807f7cc135e0cebb02c3480ae5d74d377283180a2601f8f644edf7987b009316c63a60405160405180910390a2821561101d5761101c848361152f565b5b50505050565b816005600082815260200190815260200160002060009054906101000a900473ffffffffffffffffffffffffffffffffffffffff1673ffffffffffffffffffffffffffffffffffffffff163373ffffffffffffffffffffffffffffffffffffffff16146110c5576040517f08c379a00000000000000000000000000000000000000000000000000000000081526004016110bc90612b73565b60405180910390fd5b6005600082815260200190815260200160002060006101000a81549073ffffffffffffffffffffffffffffffffffffffff0219169055807f7cc135e0cebb02c3480ae5d74d377283180a2601f8f644edf7987b009316c63a60405160405180910390a261113283836115ac565b505050565b600860205280600052604060002060009150905080600001549080600101805461116090612cdb565b80601f016020809104026020016040519081016040528092919081815260200182805461118c90612cdb565b80156111d95780601f106111ae576101008083540402835291602001916111d9565b820191906000526020600020905b8154815290600101906020018083116111bc57829003601f168201915b5050505050908060020180546111ee90612cdb565b80601f016020809104026020016040519081016040528092919081815260200182805461121a90612cdb565b80156112675780601f1061123c57610100808354040283529160200191611267565b820191906000526020600020905b81548152906001019060200180831161124a57829003601f168201915b50505050509080600301805461127c90612cdb565b80601f01602080910402602001604051908101604052809291908181526020018280546112a890612cdb565b80156112f55780601f106112ca576101008083540402835291602001916112f5565b820191906000526020600020905b8154815290600101906020018083116112d857829003601f168201915b50505050509080600401805461130a90612cdb565b80601f016020809104026020016040519081016040528092919081815260200182805461133690612cdb565b80156113835780601f1061135857610100808354040283529160200191611383565b820191906000526020600020905b81548152906001019060200180831161136657829003601f168201915b5050505050905085565b611395612047565b61139d612047565b6113b48585858461180a909392919063ffffffff16565b9150509392505050565b6113d58284608001516118ba90919063ffffffff16565b6113ec8184608001516118ba90919063ffffffff16565b505050565b6000611420600360009054906101000a900473ffffffffffffffffffffffffffffffffffffffff1684846118df565b905092915050565b6114306120b4565b8581600001818152505084816020018190525083816040018190525082816060018190525081816080018190525080600860008981526020019081526020016000206000820151816000015560208201518160010190805190602001906114989291906120e3565b5060408201518160020190805190602001906114b59291906120e3565b5060608201518160030190805190602001906114d29291906120e3565b5060808201518160040190805190602001906114ef9291906120e3565b5090505050505050505050565b6115138284608001516118ba90919063ffffffff16565b61152a8184608001516119ab90919063ffffffff16565b505050565b6000818060200190518101906115459190612e63565b905080600760008581526020019081526020016000206000820151816000015560208201518160010190805190602001906115819291906120e3565b5060408201518160020160006101000a81548161ffff021916908360f01c0217905550905050505050565b6000818060200190518101906115c2919061307e565b905080600660008581526020019081526020016000206000820151816000015560208201518160010160006101000a81548162ffffff021916908362ffffff16021790555060408201518160010160036101000a81548162ffffff021916908362ffffff16021790555060608201518160010160066101000a81548162ffffff021916908362ffffff16021790555060808201518160010160096101000a81548162ffffff021916908362ffffff16021790555060a082015181600101600c6101000a81548161ffff021916908360010b61ffff16021790555060c082015181600101600e6101000a81548161ffff021916908361ffff16021790555060e08201518160010160106101000a81548161ffff021916908361ffff1602179055506101008201518160010160126101000a81548160ff021916908360ff1602179055506101208201518160010160136101000a81548160ff021916908360ff1602179055506101408201518160010160146101000a81548160ff021916908360ff1602179055506101608201518160010160156101000a81548160ff021916908360ff160217905550905050505050565b80600360006101000a81548173ffffffffffffffffffffffffffffffffffffffff021916908373ffffffffffffffffffffffffffffffffffffffff16021790555050565b6000600260009054906101000a900473ffffffffffffffffffffffffffffffffffffffff16905090565b6000600360009054906101000a900473ffffffffffffffffffffffffffffffffffffffff16905090565b611812612047565b61182285608001516101006119db565b508385600001818152505082856020019073ffffffffffffffffffffffffffffffffffffffff16908173ffffffffffffffffffffffffffffffffffffffff16815250508185604001907bffffffffffffffffffffffffffffffffffffffffffffffffffffffff191690817bffffffffffffffffffffffffffffffffffffffffffffffffffffffff191681525050849050949350505050565b6118c78260038351611a45565b6118da8183611bca90919063ffffffff16565b505050565b60008060045490506001816118f491906130db565b6004819055506000634042994660e01b60008087600001513089604001518760018c60800151600001516040516024016119359897969594939291906131d0565b604051602081830303815290604052907bffffffffffffffffffffffffffffffffffffffffffffffffffffffff19166020820180517bffffffffffffffffffffffffffffffffffffffffffffffffffffffff838183161783525050505090506119a086838684611bec565b925050509392505050565b67ffffffffffffffff8111156119ca576119c58282611d81565b6119d7565b6119d682600083611a45565b5b5050565b6119e3612169565b60006020836119f29190613284565b14611a1e57602082611a049190613284565b6020611a1091906132b5565b82611a1b91906130db565b91505b81836020018181525050604051808452600081528281016020016040525082905092915050565b60178167ffffffffffffffff1611611a7c57611a768160058460ff16901b60ff161784611dcd90919063ffffffff16565b50611bc5565b60ff8167ffffffffffffffff1611611ad257611aab601860058460ff16901b1784611dcd90919063ffffffff16565b50611acc8167ffffffffffffffff16600185611ded9092919063ffffffff16565b50611bc4565b61ffff8167ffffffffffffffff1611611b2957611b02601960058460ff16901b1784611dcd90919063ffffffff16565b50611b238167ffffffffffffffff16600285611ded9092919063ffffffff16565b50611bc3565b63ffffffff8167ffffffffffffffff1611611b8257611b5b601a60058460ff16901b1784611dcd90919063ffffffff16565b50611b7c8167ffffffffffffffff16600485611ded9092919063ffffffff16565b50611bc2565b611b9f601b60058460ff16901b1784611dcd90919063ffffffff16565b50611bc08167ffffffffffffffff16600885611ded9092919063ffffffff16565b505b5b5b5b505050565b611bd2612169565b611be483846000015151848551611e0f565b905092915050565b60003084604051602001611c019291906133a2565b604051602081830303815290604052805190602001209050846005600083815260200190815260200160002060006101000a81548173ffffffffffffffffffffffffffffffffffffffff021916908373ffffffffffffffffffffffffffffffffffffffff160217905550807fb5e6e01e79f91267dc17b4e6314d5d4d03593d2ceee0fbb452b750bd70ea5af960405160405180910390a2600260009054906101000a900473ffffffffffffffffffffffffffffffffffffffff1673ffffffffffffffffffffffffffffffffffffffff16634000aea08685856040518463ffffffff1660e01b8152600401611cf7939291906133ce565b6020604051808303816000875af1158015611d16573d6000803e3d6000fd5b505050506040513d601f19601f82011682018060405250810190611d3a9190612c13565b611d79576040517f08c379a0000000000000000000000000000000000000000000000000000000008152600401611d709061347e565b60405180910390fd5b949350505050565b611d9f60026005600660ff16901b1783611dcd90919063ffffffff16565b50611dc98282604051602001611db5919061349e565b604051602081830303815290604052611efe565b5050565b611dd5612169565b611de58384600001515184611f23565b905092915050565b611df5612169565b611e06848560000151518585611f79565b90509392505050565b611e17612169565b8251821115611e2557600080fd5b84602001518285611e3691906130db565b1115611e6b57611e6a856002611e5b88602001518887611e5691906130db565b612007565b611e6591906134b9565b612023565b5b600080865180518760208301019350808887011115611e8a5787860182525b60208701925050505b60208410611ed15780518252602082611eac91906130db565b9150602081611ebb91906130db565b9050602084611eca91906132b5565b9350611e93565b60006001856020036101000a03905080198251168184511681811785525050508692505050949350505050565b611f0b8260028351611a45565b611f1e8183611bca90919063ffffffff16565b505050565b611f2b612169565b83602001518310611f5157611f508460028660200151611f4b91906134b9565b612023565b5b83518051602085830101848153818603611f6c576001820183525b5050508390509392505050565b611f81612169565b84602001518483611f9291906130db565b1115611fba57611fb98560028685611faa91906130db565b611fb491906134b9565b612023565b5b6000600183610100611fcc9190613646565b611fd691906132b5565b90508551838682010185831982511617815281518588011115611ff95784870182525b505085915050949350505050565b6000818311156120195782905061201d565b8190505b92915050565b60008260000151905061203683836119db565b506120418382611bca565b50505050565b6040518060a0016040528060008019168152602001600073ffffffffffffffffffffffffffffffffffffffff16815260200160007bffffffffffffffffffffffffffffffffffffffffffffffffffffffff19168152602001600081526020016120ae612169565b81525090565b6040518060a0016040528060008152602001606081526020016060815260200160608152602001606081525090565b8280546120ef90612cdb565b90600052602060002090601f0160209004810192826121115760008555612158565b82601f1061212a57805160ff1916838001178555612158565b82800160010185558215612158579182015b8281111561215757825182559160200191906001019061213c565b5b5090506121659190612183565b5090565b604051806040016040528060608152602001600081525090565b5b8082111561219c576000816000905550600101612184565b5090565b6000604051905090565b600080fd5b600080fd5b6000819050919050565b6121c7816121b4565b81146121d257600080fd5b50565b6000813590506121e4816121be565b92915050565b6000819050919050565b6121fd816121ea565b811461220857600080fd5b50565b60008135905061221a816121f4565b92915050565b600080fd5b600080fd5b600080fd5b60008083601f84011261224557612244612220565b5b8235905067ffffffffffffffff81111561226257612261612225565b5b60208301915083600182028301111561227e5761227d61222a565b5b9250929050565b600080600080600080608087890312156122a2576122a16121aa565b5b60006122b089828a016121d5565b96505060206122c189828a0161220b565b955050604087013567ffffffffffffffff8111156122e2576122e16121af565b5b6122ee89828a0161222f565b9450945050606087013567ffffffffffffffff811115612311576123106121af565b5b61231d89828a0161222f565b92509250509295509295509295565b600080600080600060808688031215612348576123476121aa565b5b6000612356888289016121d5565b95505060206123678882890161220b565b94505060406123788882890161220b565b935050606086013567ffffffffffffffff811115612399576123986121af565b5b6123a58882890161222f565b92509250509295509295909350565b60008115159050919050565b6123c9816123b4565b81146123d457600080fd5b50565b6000813590506123e6816123c0565b92915050565b600080fd5b6000601f19601f8301169050919050565b7f4e487b7100000000000000000000000000000000000000000000000000000000600052604160045260246000fd5b61243a826123f1565b810181811067ffffffffffffffff8211171561245957612458612402565b5b80604052505050565b600061246c6121a0565b90506124788282612431565b919050565b600067ffffffffffffffff82111561249857612497612402565b5b6124a1826123f1565b9050602081019050919050565b82818337600083830152505050565b60006124d06124cb8461247d565b612462565b9050828152602081018484840111156124ec576124eb6123ec565b5b6124f78482856124ae565b509392505050565b600082601f83011261251457612513612220565b5b81356125248482602086016124bd565b91505092915050565b60008060008060808587031215612547576125466121aa565b5b6000612555878288016121d5565b9450506020612566878288016123d7565b935050604085013567ffffffffffffffff811115612587576125866121af565b5b612593878288016124ff565b925050606085013567ffffffffffffffff8111156125b4576125b36121af565b5b6125c0878288016124ff565b91505092959194509250565b6000602082840312156125e2576125e16121aa565b5b60006125f0848285016121d5565b91505092915050565b612602816121ea565b82525050565b600062ffffff82169050919050565b61262081612608565b82525050565b60008160010b9050919050565b61263c81612626565b82525050565b600061ffff82169050919050565b61265981612642565b82525050565b600060ff82169050919050565b6126758161265f565b82525050565b600061018082019050612691600083018f6125f9565b61269e602083018e612617565b6126ab604083018d612617565b6126b8606083018c612617565b6126c5608083018b612617565b6126d260a083018a612633565b6126df60c0830189612650565b6126ec60e0830188612650565b6126fa61010083018761266c565b61270861012083018661266c565b61271661014083018561266c565b61272461016083018461266c565b9d9c50505050505050505050505050565b60008060008060008060008060a0898b031215612755576127546121aa565b5b60006127638b828c016121d5565b98505060206127748b828c0161220b565b975050604089013567ffffffffffffffff811115612795576127946121af565b5b6127a18b828c0161222f565b9650965050606089013567ffffffffffffffff8111156127c4576127c36121af565b5b6127d08b828c0161222f565b9450945050608089013567ffffffffffffffff8111156127f3576127f26121af565b5b6127ff8b828c0161222f565b92509250509295985092959890939650565b600073ffffffffffffffffffffffffffffffffffffffff82169050919050565b600061283c82612811565b9050919050565b61284c81612831565b811461285757600080fd5b50565b60008135905061286981612843565b92915050565b600060208284031215612885576128846121aa565b5b60006128938482850161285a565b91505092915050565b600081519050919050565b600082825260208201905092915050565b60005b838110156128d65780820151818401526020810190506128bb565b838111156128e5576000848401525b50505050565b60006128f68261289c565b61290081856128a7565b93506129108185602086016128b8565b612919816123f1565b840191505092915050565b60007fffff00000000000000000000000000000000000000000000000000000000000082169050919050565b61295981612924565b82525050565b600060608201905061297460008301866125f9565b818103602083015261298681856128eb565b90506129956040830184612950565b949350505050565b6129a681612831565b82525050565b60006020820190506129c1600083018461299d565b92915050565b6000806000606084860312156129e0576129df6121aa565b5b60006129ee868287016121d5565b93505060206129ff868287016123d7565b925050604084013567ffffffffffffffff811115612a2057612a1f6121af565b5b612a2c868287016124ff565b9150509250925092565b60008060408385031215612a4d57612a4c6121aa565b5b6000612a5b858286016121d5565b925050602083013567ffffffffffffffff811115612a7c57612a7b6121af565b5b612a88858286016124ff565b9150509250929050565b600060a082019050612aa760008301886125f9565b8181036020830152612ab981876128eb565b90508181036040830152612acd81866128eb565b90508181036060830152612ae181856128eb565b90508181036080830152612af581846128eb565b90509695505050505050565b7f536f75726365206d75737420626520746865206f7261636c65206f662074686560008201527f2072657175657374000000000000000000000000000000000000000000000000602082015250565b6000612b5d6028836128a7565b9150612b6882612b01565b604082019050919050565b60006020820190508181036000830152612b8c81612b50565b9050919050565b600081519050612ba2816121f4565b92915050565b600060208284031215612bbe57612bbd6121aa565b5b6000612bcc84828501612b93565b91505092915050565b6000604082019050612bea600083018561299d565b612bf760208301846125f9565b9392505050565b600081519050612c0d816123c0565b92915050565b600060208284031215612c2957612c286121aa565b5b6000612c3784828501612bfe565b91505092915050565b7f556e61626c6520746f207472616e736665720000000000000000000000000000600082015250565b6000612c766012836128a7565b9150612c8182612c40565b602082019050919050565b60006020820190508181036000830152612ca581612c69565b9050919050565b7f4e487b7100000000000000000000000000000000000000000000000000000000600052602260045260246000fd5b60006002820490506001821680612cf357607f821691505b602082108103612d0657612d05612cac565b5b50919050565b600080fd5b600080fd5b600067ffffffffffffffff821115612d3157612d30612402565b5b612d3a826123f1565b9050602081019050919050565b6000612d5a612d5584612d16565b612462565b905082815260208101848484011115612d7657612d756123ec565b5b612d818482856128b8565b509392505050565b600082601f830112612d9e57612d9d612220565b5b8151612dae848260208601612d47565b91505092915050565b612dc081612924565b8114612dcb57600080fd5b50565b600081519050612ddd81612db7565b92915050565b600060608284031215612df957612df8612d0c565b5b612e036060612462565b90506000612e1384828501612b93565b600083015250602082015167ffffffffffffffff811115612e3757612e36612d11565b5b612e4384828501612d89565b6020830152506040612e5784828501612dce565b60408301525092915050565b600060208284031215612e7957612e786121aa565b5b600082015167ffffffffffffffff811115612e9757612e966121af565b5b612ea384828501612de3565b91505092915050565b612eb581612608565b8114612ec057600080fd5b50565b600081519050612ed281612eac565b92915050565b612ee181612626565b8114612eec57600080fd5b50565b600081519050612efe81612ed8565b92915050565b612f0d81612642565b8114612f1857600080fd5b50565b600081519050612f2a81612f04565b92915050565b612f398161265f565b8114612f4457600080fd5b50565b600081519050612f5681612f30565b92915050565b60006101808284031215612f7357612f72612d0c565b5b612f7e610180612462565b90506000612f8e84828501612b93565b6000830152506020612fa284828501612ec3565b6020830152506040612fb684828501612ec3565b6040830152506060612fca84828501612ec3565b6060830152506080612fde84828501612ec3565b60808301525060a0612ff284828501612eef565b60a08301525060c061300684828501612f1b565b60c08301525060e061301a84828501612f1b565b60e08301525061010061302f84828501612f47565b6101008301525061012061304584828501612f47565b6101208301525061014061305b84828501612f47565b6101408301525061016061307184828501612f47565b6101608301525092915050565b60006101808284031215613095576130946121aa565b5b60006130a384828501612f5c565b91505092915050565b7f4e487b7100000000000000000000000000000000000000000000000000000000600052601160045260246000fd5b60006130e6826121ea565b91506130f1836121ea565b9250827fffffffffffffffffffffffffffffffffffffffffffffffffffffffffffffffff03821115613126576131256130ac565b5b828201905092915050565b61313a816121b4565b82525050565b60007fffffffff0000000000000000000000000000000000000000000000000000000082169050919050565b61317581613140565b82525050565b600081519050919050565b600082825260208201905092915050565b60006131a28261317b565b6131ac8185613186565b93506131bc8185602086016128b8565b6131c5816123f1565b840191505092915050565b6000610100820190506131e6600083018b61299d565b6131f3602083018a6125f9565b6132006040830189613131565b61320d606083018861299d565b61321a608083018761316c565b61322760a08301866125f9565b61323460c08301856125f9565b81810360e08301526132468184613197565b90509998505050505050505050565b7f4e487b7100000000000000000000000000000000000000000000000000000000600052601260045260246000fd5b600061328f826121ea565b915061329a836121ea565b9250826132aa576132a9613255565b5b828206905092915050565b60006132c0826121ea565b91506132cb836121ea565b9250828210156132de576132dd6130ac565b5b828203905092915050565b6000819050919050565b600061330e61330961330484612811565b6132e9565b612811565b9050919050565b6000613320826132f3565b9050919050565b600061333282613315565b9050919050565b60008160601b9050919050565b600061335182613339565b9050919050565b600061336382613346565b9050919050565b61337b61337682613327565b613358565b82525050565b6000819050919050565b61339c613397826121ea565b613381565b82525050565b60006133ae828561336a565b6014820191506133be828461338b565b6020820191508190509392505050565b60006060820190506133e3600083018661299d565b6133f060208301856125f9565b81810360408301526134028184613197565b9050949350505050565b7f756e61626c6520746f207472616e73666572416e6443616c6c20746f206f726160008201527f636c650000000000000000000000000000000000000000000000000000000000602082015250565b60006134686023836128a7565b91506134738261340c565b604082019050919050565b600060208201905081810360008301526134978161345b565b9050919050565b60006020820190506134b360008301846125f9565b92915050565b60006134c4826121ea565b91506134cf836121ea565b9250817fffffffffffffffffffffffffffffffffffffffffffffffffffffffffffffffff0483118215151615613508576135076130ac565b5b828202905092915050565b60008160011c9050919050565b6000808291508390505b600185111561356a57808604811115613546576135456130ac565b5b60018516156135555780820291505b808102905061356385613513565b945061352a565b94509492505050565b600082613583576001905061363f565b81613591576000905061363f565b81600181146135a757600281146135b1576135e0565b600191505061363f565b60ff8411156135c3576135c26130ac565b5b8360020a9150848211156135da576135d96130ac565b5b5061363f565b5060208310610133831016604e8410600b84101617156136155782820a9050838111156136105761360f6130ac565b5b61363f565b6136228484846001613520565b92509050818404811115613639576136386130ac565b5b81810290505b9392505050565b6000613651826121ea565b915061365c836121ea565b92506136897fffffffffffffffffffffffffffffffffffffffffffffffffffffffffffffffff8484613573565b90509291505056fea264697066735822122013c643016fc2cc5b960f1a8d97f1c87704bfd6644118c9a2dfeb76f71c1a11e964736f6c634300080d0033",
  "linkReferences": {},
  "deployedLinkReferences": {}
}